{
  "contractName": "VotingMachine",
  "abi": [
    {
      "constant": true,
      "inputs": [
        {
          "name": "",
          "type": "address"
        }
      ],
      "name": "voterList",
      "outputs": [
        {
          "components": [
            {
              "name": "voterID",
              "type": "uint256"
            },
            {
              "name": "name",
              "type": "string"
            }
          ],
          "name": "v",
          "type": "tuple"
        },
        {
          "name": "isValue",
          "type": "bool"
        }
      ],
      "payable": false,
      "stateMutability": "view",
      "type": "function"
    },
    {
      "constant": true,
      "inputs": [
        {
          "name": "",
          "type": "uint256"
        }
      ],
      "name": "record",
      "outputs": [
        {
          "name": "cid",
          "type": "uint256"
        },
        {
          "name": "isValue",
          "type": "bool"
        }
      ],
      "payable": false,
      "stateMutability": "view",
      "type": "function"
    },
    {
      "constant": true,
      "inputs": [],
      "name": "candidatesCount",
      "outputs": [
        {
          "name": "",
          "type": "uint256"
        }
      ],
      "payable": false,
      "stateMutability": "view",
      "type": "function"
    },
    {
      "constant": true,
      "inputs": [
        {
          "name": "",
          "type": "uint256"
        }
      ],
      "name": "candidates",
      "outputs": [
        {
          "name": "candidateID",
          "type": "uint256"
        },
        {
          "name": "name",
          "type": "string"
        },
        {
          "name": "voteCount",
          "type": "uint256"
        }
      ],
      "payable": false,
      "stateMutability": "view",
      "type": "function"
    },
    {
      "constant": true,
      "inputs": [],
      "name": "votersCount",
      "outputs": [
        {
          "name": "",
          "type": "uint256"
        }
      ],
      "payable": false,
      "stateMutability": "view",
      "type": "function"
    },
    {
      "constant": true,
      "inputs": [
        {
          "name": "",
          "type": "uint256"
        }
      ],
      "name": "voters",
      "outputs": [
        {
          "name": "",
          "type": "bool"
        }
      ],
      "payable": false,
      "stateMutability": "view",
      "type": "function"
    },
    {
      "inputs": [],
      "payable": false,
      "stateMutability": "nonpayable",
      "type": "constructor"
    },
    {
      "constant": false,
      "inputs": [
        {
          "name": "_name",
          "type": "string"
        }
      ],
      "name": "addCandidate",
      "outputs": [],
      "payable": false,
      "stateMutability": "nonpayable",
      "type": "function"
    },
    {
      "constant": false,
      "inputs": [
        {
          "name": "_name",
          "type": "string"
        },
        {
          "name": "_addr",
          "type": "address"
        }
      ],
      "name": "addVoter",
      "outputs": [],
      "payable": false,
      "stateMutability": "nonpayable",
      "type": "function"
    },
    {
      "constant": false,
      "inputs": [
        {
          "name": "_privateKey",
          "type": "bytes"
        }
      ],
      "name": "hashPrivateKey",
      "outputs": [
        {
          "name": "",
          "type": "uint256"
        }
      ],
      "payable": false,
      "stateMutability": "nonpayable",
      "type": "function"
    },
    {
      "constant": false,
      "inputs": [
        {
          "name": "_pk",
          "type": "bytes"
        },
        {
          "name": "_candidateId",
          "type": "uint256"
        }
      ],
      "name": "vote",
      "outputs": [],
      "payable": false,
      "stateMutability": "nonpayable",
      "type": "function"
    },
    {
      "constant": false,
      "inputs": [
        {
          "name": "_pk",
          "type": "bytes"
        }
      ],
      "name": "checkVote",
      "outputs": [
        {
          "name": "",
          "type": "uint256"
        }
      ],
      "payable": false,
      "stateMutability": "nonpayable",
      "type": "function"
    }
  ],
  "bytecode": "0x608060405234801561001057600080fd5b5073aab88fb14af312d509793a4c21b93556ea189b216000806101000a81548173ffffffffffffffffffffffffffffffffffffffff021916908373ffffffffffffffffffffffffffffffffffffffff160217905550610ca4806100746000396000f3006080604052600436106100af576000357c0100000000000000000000000000000000000000000000000000000000900463ffffffff16806303b4caed146100b45780632c16cd8a146101165780632d35a8a2146101625780633477ee2e1461018d578063462e91ec146102415780635607395b146102aa57806387d648ad1461033357806398c07938146103b0578063b1d999d5146103db578063da58c7d91461044e578063ee4db02114610493575b600080fd5b3480156100c057600080fd5b506100f5600480360381019080803573ffffffffffffffffffffffffffffffffffffffff169060200190929190505050610510565b60405180838152602001821515151581526020019250505060405180910390f35b34801561012257600080fd5b50610141600480360381019080803590602001909291905050506105f7565b60405180838152602001821515151581526020019250505060405180910390f35b34801561016e57600080fd5b50610177610628565b6040518082815260200191505060405180910390f35b34801561019957600080fd5b506101b86004803603810190808035906020019092919050505061062e565b6040518084815260200180602001838152602001828103825284818151815260200191508051906020019080838360005b838110156102045780820151818401526020810190506101e9565b50505050905090810190601f1680156102315780820380516001836020036101000a031916815260200191505b5094505050505060405180910390f35b34801561024d57600080fd5b506102a8600480360381019080803590602001908201803590602001908080601f01602080910402602001604051908101604052809392919081815260200183838082843782019150505050505091929192905050506106f0565b005b3480156102b657600080fd5b50610331600480360381019080803590602001908201803590602001908080601f0160208091040260200160405190810160405280939291908181526020018383808284378201915050505050509192919290803573ffffffffffffffffffffffffffffffffffffffff1690602001909291905050506107c2565b005b34801561033f57600080fd5b5061039a600480360381019080803590602001908201803590602001908080601f01602080910402602001604051908101604052809392919081815260200183838082843782019150505050505091929192905050506108f5565b6040518082815260200191505060405180910390f35b3480156103bc57600080fd5b506103c5610958565b6040518082815260200191505060405180910390f35b3480156103e757600080fd5b5061044c600480360381019080803590602001908201803590602001908080601f01602080910402602001604051908101604052809392919081815260200183838082843782019150505050505091929192908035906020019092919050505061095e565b005b34801561045a57600080fd5b5061047960048036038101908080359060200190929190505050610b43565b604051808215151515815260200191505060405180910390f35b34801561049f57600080fd5b506104fa600480360381019080803590602001908201803590602001908080601f0160208091040260200160405190810160405280939291908181526020018383808284378201915050505050509192919290505050610b63565b6040518082815260200191505060405180910390f35b60046020528060005260406000206000915090508060000160408051908101604052908160008201548152602001600182018054600181600116156101000203166002900480601f0160208091040260200160405190810160405280929190818152602001828054600181600116156101000203166002900480156105d65780601f106105ab576101008083540402835291602001916105d6565b820191906000526020600020905b8154815290600101906020018083116105b957829003601f168201915b505050505081525050908060020160009054906101000a900460ff16905082565b60066020528060005260406000206000915090508060000154908060010160009054906101000a900460ff16905082565b60015481565b6003602052806000526040600020600091509050806000015490806001018054600181600116156101000203166002900480601f0160208091040260200160405190810160405280929190818152602001828054600181600116156101000203166002900480156106e05780601f106106b5576101008083540402835291602001916106e0565b820191906000526020600020905b8154815290600101906020018083116106c357829003601f168201915b5050505050908060020154905083565b6000809054906101000a900473ffffffffffffffffffffffffffffffffffffffff1673ffffffffffffffffffffffffffffffffffffffff163373ffffffffffffffffffffffffffffffffffffffff1614151561074b57600080fd5b606060405190810160405280600154815260200182815260200160008152506003600060016000815460010191905081905581526020019081526020016000206000820151816000015560208201518160010190805190602001906107b1929190610bd3565b506040820151816002015590505050565b6000809054906101000a900473ffffffffffffffffffffffffffffffffffffffff1673ffffffffffffffffffffffffffffffffffffffff163373ffffffffffffffffffffffffffffffffffffffff1614151561081d57600080fd5b60408051908101604052806040805190810160405280600254815260200185815250815260200160011515815250600460008373ffffffffffffffffffffffffffffffffffffffff1673ffffffffffffffffffffffffffffffffffffffff1681526020019081526020016000206000820151816000016000820151816000015560208201518160010190805190602001906108b9929190610bd3565b50505060208201518160020160006101000a81548160ff0219169083151502179055509050506002600081548092919060010191905055505050565b60006006600061090484610b63565b815260200190815260200160002060010160009054906101000a900460ff161561094e576006600061093584610b63565b8152602001908152602001600020600001549050610953565b600090505b919050565b60025481565b600460003373ffffffffffffffffffffffffffffffffffffffff1673ffffffffffffffffffffffffffffffffffffffff16815260200190815260200160002060020160009054906101000a900460ff1615156109b957600080fd5b60056000600460003373ffffffffffffffffffffffffffffffffffffffff1673ffffffffffffffffffffffffffffffffffffffff16815260200190815260200160002060000160000154815260200190815260200160002060009054906101000a900460ff16151515610a2b57600080fd5b600081118015610a3d57506001548111155b1515610a4857600080fd5b6003600082815260200190815260200160002060020160008154809291906001019190505550600160056000600460003373ffffffffffffffffffffffffffffffffffffffff1673ffffffffffffffffffffffffffffffffffffffff16815260200190815260200160002060000160000154815260200190815260200160002060006101000a81548160ff02191690831515021790555060408051908101604052808281526020016001151581525060066000610b0485610b63565b81526020019081526020016000206000820151816000015560208201518160010160006101000a81548160ff0219169083151502179055509050505050565b60056020528060005260406000206000915054906101000a900460ff1681565b6000816040518082805190602001908083835b602083101515610b9b5780518252602082019150602081019050602083039250610b76565b6001836020036101000a0380198251168184511680821785525050505050509050019150506040518091039020600190049050919050565b828054600181600116156101000203166002900490600052602060002090601f016020900481019282601f10610c1457805160ff1916838001178555610c42565b82800160010185558215610c42579182015b82811115610c41578251825591602001919060010190610c26565b5b509050610c4f9190610c53565b5090565b610c7591905b80821115610c71576000816000905550600101610c59565b5090565b905600a165627a7a72305820b8094cccd94f337819f186bb5fb9d614e43b9e893a16cc71c8971d7fd0d21a350029",
  "source": "pragma solidity ^0.4.2;\n\n\ncontract VotingMachine{\n\n  // store Admin\n  address Admin;\n  // Store Candidates Count\n  uint public candidatesCount;\n  // Store Voters Count\n  uint public votersCount;\n\n  //check Admin rights\n\tmodifier onlyAdmin(){\n\t  require(msg.sender==Admin);\n\t  _;\n\t}\n\n   //check Voter rights\n\tmodifier onlyVoter(){\n\t  require(voterList[msg.sender].isValue);\n\t  _;\n\t}\n\n  //structure to store candidate's details\n  struct Candidate{\n    uint candidateID;\n    string name;\n    uint voteCount;\n  }\n\n  //structure to store voter's details\n  struct Voter{\n    uint voterID;\n    string name;\n   }\n\n  //structure to store voterData\n  struct VoterData{\n    Voter v;\n    bool isValue;\n  }\n\n\n  //structure to store recordData\n  struct recordData{\n    uint cid;\n    bool isValue;\n  }\n\n  // mapping to store candidates that have registered\n  mapping( uint => Candidate ) public candidates;\n  // mapping to store voters that have registered\n  mapping( address => VoterData ) public voterList;\n  // mapping to store voters that have voted\n  mapping( uint => bool ) public voters;\n\n  //mapping to store votes\n  mapping ( uint => recordData ) public record;\n\n  //constructor make Admin\n  function VotingMachine () public {\n    Admin = 0xaaB88Fb14AF312d509793A4c21b93556eA189B21;\n  }\n\n  //add candidates                only Admin\n  function addCandidate (string _name) onlyAdmin {\n      candidates[++candidatesCount] = Candidate(candidatesCount, _name, 0);\n  }\n\n  //add voters                    only Admin\n  function addVoter (string _name , address _addr) onlyAdmin {\n      voterList[_addr] = VoterData(Voter(votersCount, _name),true);\n      votersCount++;\n  }\n\n  //generate a secure hash\n  function hashPrivateKey(bytes _privateKey) returns (uint){\n    return uint(keccak256(_privateKey));\n  }\n\n  //vote using private key        only Voter\n  function vote (bytes _pk, uint _candidateId) public onlyVoter() {\n\n      // require that they haven't voted before\n      require(!voters[voterList[msg.sender].v.voterID]);\n\n      // require a valid candidate\n      require(_candidateId > 0 && _candidateId <= candidatesCount);\n\n      // update candidate vote Count\n      candidates[_candidateId].voteCount ++;\n\n      // record that voter has voted\n      voters[voterList[msg.sender].v.voterID] = true;\n\n      //update record\n      record[hashPrivateKey(_pk)]= recordData(_candidateId,true);\n\n  }\n\n  // check vote\n  function checkVote(bytes _pk) returns (uint){\n  if (record[hashPrivateKey(_pk)].isValue) return record[hashPrivateKey(_pk)].cid;\n  else return 0;\n  }\n\n  //check voters details          only Admin and Voter\n\n  //check my details\n\n\n}",
  "sourcePath": "/home/shubham/project/VotingMachine/contracts/VotingMachine.sol",
  "compiler": {
    "name": "solc",
    "version": "0.4.24+commit.e67f0147.Emscripten.clang"
  },
  "schemaVersion": "2.0.1",
  "updatedAt": "2018-10-29T12:22:32.680Z"
}